:020000040800F2
:100000000050002019540008DD510008E351000899
:10001000E9510008EF510008F55100080000000008
:10002000000000000000000000000000FB5100087C
:100030000752000800000000135200081F52000879
:1000400061540008615400086154000861540008BC
:1000500061540008615400086154000861540008AC
:10006000615400086154000861540008615400089C
:100070006154000861540008615400082D520008C2
:10008000615400086154000861540008615400087C
:10009000615400086154000861540008415200088E
:1000A000615400085152000861540008615400086E
:1000B000615400086154000865520008615400084A
:1000C000615400086154000861540008615400083C
:1000D0006154000879520008615400086154000816
:1000E00061540008615400086154000800000000D9
:1000F0000000000000000000000000000000000000
:0C01000000000000000000005FF808F1A3
:1001100010B5054C237833B9044B13B10448AFF341
:1001200000800123237010BD180200200000000091
:10013000F8D4000808B5034B1BB103490348AFF3DB
:10014000008008BD000000001C020020F8D4000858
:10015000034613F8012B002AFBD1181A0138704707
:1001600081F0004102E000BF83F0004330B54FEA68
:1001700041044FEA430594EA050F08BF90EA020FD5
:100180001FBF54EA000C55EA020C7FEA645C7FEA68
:10019000655C00F0E2804FEA5454D4EB5555B8BF8B
:1001A0006D420CDD2C4480EA020281EA030382EAFC
:1001B000000083EA010180EA020281EA0303362D8E
:1001C00088BF30BD11F0004F4FEA01314FF4801C61
:1001D0004CEA113102D0404261EB410113F0004F73
:1001E0004FEA03334CEA133302D0524263EB43032A
:1001F00094EA050F00F0A780A4F10104D5F1200EC8
:100200000DDB02FA0EFC22FA05F2801841F1000122
:1002100003FA0EF2801843FA05F359410EE0A5F1F6
:1002200020050EF1200E012A03FA0EFC28BF4CF027
:10023000020C43FA05F3C01851EBE37101F00045DD
:1002400007D54FF0000EDCF1000C7EEB00006EEBEA
:100250000101B1F5801F1BD3B1F5001F0CD3490874
:100260005FEA30004FEA3C0C04F101044FEA4452CB
:1002700012F5800F80F09A80BCF1004F08BF5FEA52
:10028000500C50F1000041EB045141EA050130BD32
:100290005FEA4C0C404141EB0101013C28BFB1F544
:1002A000801FE9D291F0000F04BF01460020B1FA8F
:1002B00081F308BF2033A3F10B03B3F120020CDA62
:1002C0000C3208DD02F1140CC2F10C0201FA0CF040
:1002D00021FA02F10CE002F11402D8BFC2F1200CA5
:1002E00001FA02F120FA0CFCDCBF41EA0C0190405B
:1002F000E41AA2BF01EB0451294330BD6FEA0404A4
:100300001F3C1CDA0C340EDC04F11404C4F120028E
:1003100020FA04F001FA02F340EA030021FA04F3A0
:1003200045EA030130BDC4F10C04C4F1200220FAF7
:1003300002F001FA04F340EA0300294630BD21FA35
:1003400004F0294630BD94F0000F83F4801306BFFB
:1003500081F480110134013D4EE77FEA645C18BFEF
:100360007FEA655C29D094EA050F08BF90EA020F86
:1003700005D054EA000C04BF1946104630BD91EA7E
:10038000030F1EBF0021002030BD5FEA545C05D181
:100390004000494128BF41F0004130BD14F58004C0
:1003A0003CBF01F5801130BD01F0004545F0FE4134
:1003B00041F470014FF0000030BD7FEA645C1ABF69
:1003C000194610467FEA655C1CBF0B46024650EAA0
:1003D000013406BF52EA033591EA030F41F40021CC
:1003E00030BD00BF90F0000F04BF0021704730B552
:1003F0004FF4806404F132044FF000054FF0000127
:1004000050E700BF90F0000F04BF0021704730B5E7
:100410004FF4806404F1320410F0004548BF4042BC
:100420004FF000013EE700BF42004FEAE2014FEA11
:1004300031014FEA02701FBF12F07F4393F07F4FEC
:1004400081F06051704732F07F4208BF704793F0EF
:100450007F4F04BF41F40021704730B54FF4607402
:1004600001F0004521F000411CE700BF50EA010205
:1004700008BF704730B54FF000050AE050EA0102AE
:1004800008BF704730B511F0004502D5404261EB1E
:1004900041014FF4806404F132045FEA915C3FF45F
:1004A000D8AE4FF003025FEADC0C18BF03325FEAFC
:1004B000DC0C18BF033202EBDC02C2F1200300FAAD
:1004C00003FC20FA02F001FA03FE40EA0E0021FAD2
:1004D00002F11444BDE600BF70B54FF0FF0C4CF4C0
:1004E000E06C1CEA11541DBF1CEA135594EA0C0F72
:1004F00095EA0C0F00F0DEF82C4481EA030621EAAD
:100500004C5123EA4C5350EA013518BF52EA0335E7
:1005100041F4801143F4801338D0A0FB02CE4FF099
:100520000005E1FB02E506F00042E0FB03E54FF0C9
:100530000006E1FB03569CF0000F18BF4EF0010EC1
:10054000A4F1FF04B6F5007F64F5407404D25FEABD
:100550004E0E6D4146EB060642EAC62141EA555170
:100560004FEAC52040EA5E504FEACE2EB4F1FD0CB2
:1005700088BFBCF5E06F1ED8BEF1004F08BF5FEA30
:10058000500E50F1000041EB045170BD06F00046E2
:1005900046EA010140EA020081EA0301B4EB5C048F
:1005A000C2BFD4EB0C0541EA045170BD41F4801187
:1005B0004FF0000E013C00F3AB8014F1360FDEBFAC
:1005C000002001F0004170BDC4F10004203C35DA88
:1005D0000C341BDC04F11404C4F1200500FA05F30B
:1005E00020FA04F001FA05F240EA020001F00042AC
:1005F00021F0004110EBD37021FA04F642EB060122
:100600005EEA430E08BF20EAD37070BDC4F10C044B
:10061000C4F1200500FA04F320FA05F001FA04F20F
:1006200040EA020001F0004110EBD37041F10001FB
:100630005EEA430E08BF20EAD37070BDC4F1200506
:1006400000FA05F24EEA020E20FA04F301FA05F26E
:1006500043EA020321FA04F001F0004121FA04F216
:1006600020EA020000EBD3705EEA430E08BF20EAE6
:10067000D37070BD94F0000F0FD101F00046400020
:1006800041EB010111F4801F08BF013CF7D041EAA2
:10069000060195F0000F18BF704703F000465200A6
:1006A00043EB030313F4801F08BF013DF7D043EA77
:1006B0000603704794EA0C0F0CEA135518BF95EA2D
:1006C0000C0F0CD050EA410618BF52EA4306D1D1B4
:1006D00081EA030101F000414FF0000070BD50EAD3
:1006E000410606BF1046194652EA430619D094EA5D
:1006F0000C0F02D150EA013613D195EA0C0F05D147
:1007000052EA03361CBF104619460AD181EA03019A
:1007100001F0004141F0FE4141F470014FF0000052
:1007200070BD41F0FE4141F4780170BD70B54FF0ED
:10073000FF0C4CF4E06C1CEA11541DBF1CEA13556D
:1007400094EA0C0F95EA0C0F00F0A7F8A4EB05044F
:1007500081EA030E52EA03354FEA013100F0888046
:100760004FEA03334FF0805545EA131343EA12630F
:100770004FEA022245EA111545EA10654FEA0026C4
:100780000EF000419D4208BF964244F1FD0404F57D
:10079000407402D25B084FEA3202B61A65EB0305D9
:1007A0005B084FEA32024FF480104FF4002CB6EB96
:1007B000020E75EB030E22BFB61A754640EA0C0016
:1007C0005B084FEA3202B6EB020E75EB030E22BF56
:1007D000B61A754640EA5C005B084FEA3202B6EB97
:1007E000020E75EB030E22BFB61A754640EA9C0056
:1007F0005B084FEA3202B6EB020E75EB030E22BF26
:10080000B61A754640EADC0055EA060E18D04FEAE3
:10081000051545EA16754FEA06164FEAC30343EA83
:1008200052734FEAC2025FEA1C1CC0D111F4801F50
:100830000BD141EA00014FF000004FF0004CB6E749
:1008400011F4801F04BF01430020B4F1FD0C88BFE8
:10085000BCF5E06F3FF6AFAEB5EB030C04BFB6EBF3
:10086000020C5FEA500C50F1000041EB045170BDE6
:100870000EF0004E4EEA113114EB5C04C2BFD4EB13
:100880000C0541EA045170BD41F480114FF0000E97
:10089000013C90E645EA060E8DE60CEA135594EA13
:1008A0000C0F08BF95EA0C0F3FF43BAF94EA0C0F16
:1008B0000AD150EA01347FF434AF95EA0C0F7FF48B
:1008C00025AF104619462CE795EA0C0F06D152EADF
:1008D00003353FF4FDAE1046194622E750EA4106C3
:1008E00018BF52EA43067FF4C5AE50EA41047FF4D4
:1008F0000DAF52EA43057FF4EBAE12E74FF0FF3C39
:1009000006E000BF4FF0010C02E000BF4FF0010C09
:100910004DF804CD4FEA410C7FEA6C5C4FEA430C82
:1009200018BF7FEA6C5C1BD001B050EA410C0CBFD1
:1009300052EA430C91EA030F02BF90EA020F002033
:10094000704710F1000F91EA030F58BF994208BF9A
:1009500090422CBFD8176FEAE37040F00100704757
:100960004FEA410C7FEA6C5C02D150EA013C07D1AE
:100970004FEA430C7FEA6C5CD6D152EA033CD3D0F9
:100980005DF8040B704700BF8446104662468C46F3
:100990001946634600E000BF01B5FFF7B7FF002826
:1009A00048BF10F1000F01BD4DF808EDFFF7F4FF4F
:1009B0000CBF012000205DF808FB00BF4DF808EDDA
:1009C000FFF7EAFF34BF012000205DF808FB00BFFD
:1009D0004DF808EDFFF7E0FF94BF012000205DF81F
:1009E00008FB00BF4DF808EDFFF7CEFF94BF0120D4
:1009F00000205DF808FB00BF4DF808EDFFF7C4FFCD
:100A000034BF012000205DF808FB00BF4FEA410C15
:100A10007FEA6C5C02D150EA013C0AD14FEA430CF8
:100A20007FEA6C5C02D152EA033C02D14FF0000035
:100A300070474FF0010070474FEA410212F5001273
:100A400015D211D56FF47873B3EB625212D94FEA15
:100A5000C12343F0004343EA505311F0004F23FAFF
:100A600002F018BF404270474FF00000704750EA54
:100A7000013005D111F0004008BF6FF00040704711
:100A80004FF00000704700BF4A0011D212F500126B
:100A900011D20DD56FF47873B3EB62520ED44FEAD6
:100AA000C12343F0004343EA505323FA02F0704756
:100AB0004FF00000704750EA013002D14FF0FF3094
:100AC00070474FF0000070474FEA4102B2F1E04337
:100AD00024BFB3F5001CDCF1FE5C0DD901F0004C25
:100AE0004FEAC0024CEA5070B2F1004F40EB830075
:100AF00008BF20F00100704711F0804F21D113F1A1
:100B00003872BCBF01F00040704741F480114FEAD9
:100B10005252C2F11802C2F1200C10FA0CF320FA62
:100B200002F018BF40F001004FEAC1234FEAD3237F
:100B300003FA0CFC40EA0C0023FA02F34FEA4303E9
:100B4000CCE77FEA625307D150EA01331EBF4FF072
:100B5000FE4040F44000704701F0004040F0FE408D
:100B600040F40000704700BF80F0004002E000BF8A
:100B700081F0004142001FBF5FEA410392EA030F88
:100B80007FEA226C7FEA236C6AD04FEA1262D2EBD2
:100B90001363C1BFD218414048404140B8BF5B42D7
:100BA000192B88BF704710F0004F40F4000020F070
:100BB0007F4018BF404211F0004F41F4000121F086
:100BC0007F4118BF494292EA030F3FD0A2F10102D0
:100BD00041FA03FC10EB0C00C3F1200301FA03F10E
:100BE00000F0004302D5494260EB4000B0F5000F31
:100BF00013D3B0F1807F06D340084FEA310102F1F0
:100C00000102FE2A51D2B1F1004F40EBC25008BFA1
:100C100020F0010040EA03007047490040EB00006B
:100C2000013A28BFB0F5000FEDD2B0FA80FCACF16C
:100C3000080CB2EB0C0200FA0CF0AABF00EBC25099
:100C400052421843BCBFD0401843704792F0000F87
:100C500081F4000106BF80F400000132013BB5E7DA
:100C60004FEA41037FEA226C18BF7FEA236C21D050
:100C700092EA030F04D092F0000F08BF08467047B5
:100C800090EA010F1CBF0020704712F07F4F04D183
:100C9000400028BF40F00040704712F100723CBF96
:100CA00000F50000704700F0004343F0FE4040F4C0
:100CB000000070477FEA226216BF08467FEA23637E
:100CC0000146420206BF5FEA412390EA010F40F469
:100CD000800070474FF0000304E000BF10F00043B5
:100CE00048BF40425FEA000C08BF704743F096439C
:100CF00001464FF000001CE050EA010208BF7047B7
:100D00004FF000030AE000BF50EA010208BF70473D
:100D100011F0004302D5404261EB41015FEA010C52
:100D200002BF84460146002043F0B64308BFA3F14A
:100D30008053A3F50003BCFA8CF2083AA3EBC2532C
:100D400010DB01FA02FC634400FA02FCC2F120024B
:100D5000BCF1004F20FA02F243EB020008BF20F082
:100D60000100704702F1200201FA02FCC2F12002E8
:100D700050EA4C0021FA02F243EB020008BF20EADD
:100D8000DC7070474FF0FF0C1CEAD0521EBF1CEA0B
:100D9000D15392EA0C0F93EA0C0F6FD01A4480EAF9
:100DA000010C400218BF5FEA41211ED04FF00063E2
:100DB00043EA501043EA5111A0FB01310CF000400E
:100DC000B1F5000F3EBF490041EAD3715B0040EA34
:100DD000010062F17F02FD2A1DD8B3F1004F40EB04
:100DE000C25008BF20F00100704790F0000F0CF0D7
:100DF000004C08BF49024CEA502040EA51207F3A9B
:100E0000C2BFD2F1FF0340EAC250704740F4000075
:100E10004FF00003013A5DDC12F1190FDCBF00F066
:100E200000407047C2F10002410021FA02F1C2F114
:100E3000200200FA02FC5FEA310040F1000053EAB0
:100E40004C0308BF20EADC70704792F0000F00F0FE
:100E5000004C02BF400010F4000F013AF9D040EA04
:100E60000C0093F0000F01F0004C02BF490011F498
:100E7000000F013BF9D041EA0C018FE70CEAD15396
:100E800092EA0C0F18BF93EA0C0F0AD030F0004C16
:100E900018BF31F0004CD8D180EA010000F00040CA
:100EA000704790F0000F17BF90F0004F084691F088
:100EB000000F91F0004F14D092EA0C0F01D14202C2
:100EC0000FD193EA0C0F03D14B0218BF084608D18B
:100ED00080EA010000F0004040F0FE4040F40000D5
:100EE000704740F0FE4040F4400070474FF0FF0C68
:100EF0001CEAD0521EBF1CEAD15392EA0C0F93EAAF
:100F00000C0F69D0A2EB030280EA010C49024FEA00
:100F1000402037D04FF0805343EA111143EA1013B9
:100F20000CF000408B4238BF5B0042F17D024FF471
:100F3000000C8B4224BF5B1A40EA0C00B3EB510F4C
:100F400024BFA3EB510340EA5C00B3EB910F24BF35
:100F5000A3EB910340EA9C00B3EBD10F24BFA3EBBA
:100F6000D10340EADC001B0118BF5FEA1C1CE0D182
:100F7000FD2A3FF650AF8B4240EBC25008BF20F035
:100F8000010070470CF0004C4CEA50207F32C2BF89
:100F9000D2F1FF0340EAC250704740F400004FF026
:100FA0000003013A37E792F0000F00F0004C02BF57
:100FB000400010F4000F013AF9D040EA0C0093F021
:100FC000000F01F0004C02BF490011F4000F013B7B
:100FD000F9D041EA0C0195E70CEAD15392EA0C0FE3
:100FE00008D142027FF47DAF93EA0C0F7FF470AF1B
:100FF000084676E793EA0C0F04D14B023FF44CAF5E
:1010000008466EE730F0004C18BF31F0004CCAD1F2
:1010100030F000427FF45CAF31F000437FF43CAF2E
:101020005FE700BF4FF0FF3C06E000BF4FF0010C50
:1010300002E000BF4FF0010C4DF804CD4FEA400232
:101040004FEA41037FEA226C18BF7FEA236C11D07C
:1010500001B052EA530C18BF90EA010F58BFB2EB2F
:10106000030088BFC81738BF6FEAE17018BF40F0AF
:10107000010070477FEA226C02D15FEA402C05D163
:101080007FEA236CE4D15FEA412CE1D05DF8040BE8
:10109000704700BF844608466146FFE70FB5FFF77B
:1010A000C9FF002848BF10F1000F0FBD4DF808ED33
:1010B000FFF7F4FF0CBF012000205DF808FB00BF24
:1010C0004DF808EDFFF7EAFF34BF012000205DF87E
:1010D00008FB00BF4DF808EDFFF7E0FF94BF0120CB
:1010E00000205DF808FB00BF4DF808EDFFF7D2FFC8
:1010F00094BF012000205DF808FB00BF4DF808ED0B
:10110000FFF7C8FF34BF012000205DF808FB00BFD7
:101110004FEA4002B2F1FE4F0FD34FF09E03B3EB04
:1011200012620DD94FEA002343F0004310F0004F44
:1011300023FA02F018BF404270474FF0000070479A
:1011400012F1610F01D1420205D110F0004008BF39
:101150006FF0004070474FF00000704742000ED221
:10116000B2F1FE4F0BD34FF09E03B3EB126209D4E2
:101170004FEA002343F0004323FA02F070474FF098
:101180000000704712F1610F01D1420202D14FF00D
:10119000FF3070474FF00000704700BF80B588B047
:1011A00004AF1F4B00221A701E4B00221A7000F071
:1011B000ABFF01F0BDFA01F06BFC002001F0BAFEBC
:1011C000194B002202924FF6FF7201925A68009268
:1011D0001B68164A6B21282001F076FB144B1A6815
:1011E0003B1D1449184609F04FFC134B391D0022D2
:1011F00002924FF4FC6201925A6800921B680A4600
:10120000A0215C2001F060FB41F2883004F08CF9F1
:10121000002001F08FFE00BF1037BD4680BD00BF2B
:1012200091070020900700202400002010D500081E
:101230002C0000201CD500081C00002080B584B0C4
:1012400000AF78604FF080434FF08042DB6A9363D9
:101250005A4A7B6813605A4B4FF000021A60594B90
:101260004FF000021A60584B4FF000021A60042140
:10127000564807F0C5F901228021554805F017FBB3
:1012800000224FF48051524805F011FB00224FF428
:1012900000414F4805F00BFB4E4B00221A7001F045
:1012A00001F800F021FE00F02FFF4B4B1A784B4B5A
:1012B0001B789A4201D001F0ADF8474B1A78474BA2
:1012C0001A7000F075FD03461A46454B1A80444BD0
:1012D0001B88B3F5FA5F05D9414B1B8842F20F72A8
:1012E00093420BD93E4B1B8841F28832934225D959
:1012F0003B4B1B8841F6573293421FD8394B002293
:101300001A70384B5B780133DAB2364B5A70354B72
:1013100000229A70334B0022DA70324B00221A718D
:10132000304B00225A712F4B5B78052B41D92A4B49
:1013300001221A702B4B00225A703AE0284B1B886E
:1013400042F6F822934205D9254B1B8843F2C72267
:1013500093421FD9234B00221A70224B00225A704D
:10136000204B00229A701F4B0022DA701D4B002286
:101370001A711C4B5B790133DAB21A4B5A71194B53
:101380005B79052B15D9144B06221A70154B0022D8
:101390005A710EE00023FB6007E0124AFB68134419
:1013A00000221A70FB680133FB60FB68052BF4DD3B
:1013B00000BF00BF1037BD4680BD00BF48020020FF
:1013C000580500205C050020500200202804002061
:1013D00000080140380200209107002090070020FB
:1013E0008A0500205802002080B584B000AF7860E4
:1013F0004FF08043DB6A7A6802FB03F34FF08042D0
:101400006449A1FB03135B099363634A7B68136020
:10141000624B4FF000021A60614B4FF000021A60FD
:101420000421604807F0ECF800224FF480515E4838
:1014300005F03DFA00224FF400415B4805F037FA11
:1014400000F030FF594B1A78594B1B789A4201D063
:1014500000F0E0FF554B1A78554B1A7000F0A8FCCD
:1014600003461A46534B1A80524B1B8842F6F82209
:10147000934225D94F4B1B8843F2C72293421FD872
:101480004D4B00225A704C4B00229A704A4B00225E
:10149000DA70494B00221A71474B00225A71464BB1
:1014A0001B780133DAB2444B1A70434B1B78052B7F
:1014B0006CD93E4B00221A703F4B00221A7065E037
:1014C0003C4B1B8841F28832934225D9394B1B880B
:1014D00041F6573293421FD8374B00221A70364BD1
:1014E00000225A70344B00229A70334BDB78013360
:1014F000DAB2314BDA70304B00221A712E4B0022D7
:101500005A712D4BDB78052B40D9284B03221A70DA
:10151000294B0022DA7039E0264B1B88B3F5FA5FBD
:1015200005D9244B1B8842F20F7293421FD9224BDC
:1015300000221A70204B00225A701F4B00229A7012
:101540001D4B0022DA701C4B00221A711A4B5B797A
:101550000133DAB2184B5A71174B5B79052B15D949
:10156000124B06221A70144B00225A710EE000230F
:10157000FB6007E0104AFB68134400221A70FB6806
:101580000133FB60FB68052BF4DD00BF00BF1037A3
:10159000BD4680BD89888888480200205805002003
:1015A000500200202804002000080140910700207C
:1015B000900700208A0500205802002080B584B0E2
:1015C00000AF78604FF08043DB6A7A6802FB03F378
:1015D0004FF080428149A1FB03135B099363804A6A
:1015E0007B6813607F4B4FF000021A607E4B4FF018
:1015F00000021A6004217D4807F002F800228021D1
:101600007B4805F054F901224FF48051784805F0E9
:101610004EF900224FF40041754805F048F900F0FA
:1016200041FE744B1A78744B1B789A4201D000F03B
:10163000F1FE704B1A78704B1A7000F0B9FB03463C
:101640001A466E4B1A806D4B1B8842F6F822934265
:1016500026D96A4B1B8843F2C722934220D8684B95
:101660001B780133DAB2664B1A70654B00225A7050
:10167000634B00229A70624B0022DA70604B0022AA
:101680001A715F4B00225A715D4B1B78052B40F29B
:10169000A180584B00221A70594B00221A7099E011
:1016A000564B1B8841F28832934229D9534B1B88F1
:1016B00041F65732934223D8524B1B78002B1FD050
:1016C0004F4B00221A704E4B00225A704C4B002296
:1016D0009A704B4B0022DA70494B1B790133DAB216
:1016E000474B1A71464B00225A71454B1B79052B0B
:1016F00070D9404B04221A70414B00221A7169E0E4
:101700003E4B1B8841F28832934229D93B4B1B88C0
:1017100041F65732934223D83A4B1B78002B1FD106
:10172000374B00221A70364B00225A70344B9B788C
:101730000133DAB2324B9A70314B0022DA70304BFF
:1017400000221A712E4B00225A712D4B9B78052BCB
:1017500040D9284B02221A70294B00229A7039E096
:10176000264B1B88B3F5FA5F05D9244B1B8842F240
:101770000F7293421FD9224B00221A70204B002275
:101780005A701F4B00229A701D4B0022DA701C4BBE
:1017900000221A711A4B5B790133DAB2184B5A7175
:1017A000174B5B79052B15D9124B06221A70144B77
:1017B00000225A710EE00023FB6007E0104AFB682C
:1017C000134400221A70FB680133FB60FB68052B91
:1017D000F4DD00BF00BF1037BD4680BD8988888812
:1017E0004802002058050020500200202804002054
:1017F0000008014091070020900700208A05002082
:10180000580200203800002080B584B000AF786016
:101810004FF08043DB6A7A6802FB03F34FF08042AB
:101820007F49A1FB03135B0993637E4A7B681360C6
:101830007D4B4FF000021A607C4B4FF000021A60A3
:1018400004217B4806F0DCFE00224FF480517948E9
:1018500005F02DF800224FF40041764805F027F8F6
:1018600000F020FD744B1A78744B1B789A4201D01B
:1018700000F0D0FD704B1A78704B1A7000F098FA97
:1018800003461A466E4B1A806D4B1B88B3F5FA5F00
:1018900026D96B4B1B8842F20F72934220D8694BBA
:1018A00000221A70674B5B780133DAB2654B5A70CD
:1018B000644B00229A70634B0022DA70614B002265
:1018C0001A71604B00225A715E4B5B78052B40F217
:1018D000A280594B01221A705A4B00225A709AE08A
:1018E000574B1B8841F28832934229D9544B1B88AD
:1018F00041F65732934223D8534B1B78002B1FD00D
:10190000504B00221A704F4B00225A704D4B002250
:101910009A704C4B0022DA704A4B1B790133DAB2D1
:10192000484B1A71474B00225A71464B1B79052BC5
:1019300071D9414B04221A70424B00221A716AE09D
:101940003F4B1B8841F28832934229D93C4B1B887C
:1019500041F65732934223D83B4B1B78002B1FD1C3
:10196000384B00221A70374B00225A70354B002238
:101970009A70344BDB780133DAB2324BDA70314B88
:1019800000221A712F4B00225A712E4BDB78052B47
:1019900041D9294B03221A702A4B0022DA703AE00F
:1019A000274B1B8841F28832934205D9244B1B8870
:1019B00041F6573293421FD9224B00221A70214B15
:1019C00000225A701F4B00229A701E4B0022DA70C0
:1019D0001C4B00221A711B4B5B790133DAB2194B95
:1019E0005A71184B5B79052B15D9134B06221A70C7
:1019F000144B00225A710EE00023FB6007E0114AED
:101A0000FB68134400221A70FB680133FB60FB681B
:101A1000052BF4DD00BF00BF1037BD4680BD00BF01
:101A2000898888884802002058050020500200203C
:101A300028040020000801409107002090070020A2
:101A40008A050020580200203800002080B584B0AC
:101A500000AF7860704A7B6813604FF08043DB6AA8
:101A60007A6802FB03F34FF080426C49A1FB031339
:101A70005B0993636A4A7B6813606A4B1B6818466C
:101A8000FFF72CF90246684B1B6819461046FFF712
:101A900079F903461A46654B1A600421644806F03A
:101AA000AFFD00228021634804F001FF00224FF4C3
:101AB0000041604804F0FBFE00F0F4FB00F058FA2F
:101AC0005D4B1A785D4B1B789A4201D000F060FCA8
:101AD000594B1A78594B1A7000F06AF903461A46A6
:101AE000574B1A80564B1B8842F6F822934225D951
:101AF000534B1B8843F2C72293421FD8514B1B788C
:101B00000133DAB24F4B1A704E4B00225A704D4BD4
:101B100000229A704B4B0022DA704A4B00221A7155
:101B2000484B00225A71474B1B78052B70D9424B0A
:101B300000221A70434B00221A7069E0404B1B8848
:101B4000B3F5FA5F05D93E4B1B8842F20F72934200
:101B500003D93D4B1B78002B1FD13A4B00221A7042
:101B6000384B00225A70374B9B780133DAB2354B31
:101B70009A70344B0022DA70324B00221A71314BCA
:101B800000225A712F4B9B78052B41D92A4B0222F8
:101B90001A702C4B00229A703AE0294B1B8841F2B4
:101BA0008832934205D9264B1B8841F6573293421F
:101BB0001FD9244B00221A70224B00225A70214B4D
:101BC00000229A701F4B0022DA701E4B00221A71FD
:101BD0001C4B5B790133DAB21A4B5A71194B5B79A2
:101BE000052B15D9144B06221A70164B00225A7178
:101BF0000EE00023FB6007E0124AFB68134400225A
:101C00001A70FB680133FB60FB68052BF4DD00BF35
:101C100000BF1037BD4680BD340200208988888807
:101C200048020020400200205002002058050020F9
:101C300028040020000801409107002090070020A0
:101C40008A050020580200203800002080B582B0AC
:101C500000AF78604FF080434FF47A729A63454B3F
:101C60004FF000021A60444A7B6813600421434825
:101C700006F0C6FC00228021414804F018FE002234
:101C80004FF480513E4804F012FE00F071F900223A
:101C900008213C4804F00BFE00221021394804F0D2
:101CA00006FE394B1A78394B1A7000F081F803465A
:101CB0001A46374B1A80364B1B8842F6F82293425D
:101CC00025D9334B1B8843F2C72293421FD8314B8F
:101CD0001B780133DAB22F4B1A702E4B00225A7048
:101CE0002C4B00229A702B4B0022DA70294B0022D9
:101CF0001A71284B00225A71264B1B78052B35D9B7
:101D0000214B00221A70234B00221A702EE0204B28
:101D10001B88B3F5FA5F29D91D4B1B8842F20F725D
:101D2000934223D81C4B1B78002B1FD1194B002248
:101D30001A70184B5B780133DAB2164B5A70154B98
:101D400000229A70134B0022DA70124B00221A7193
:101D5000104B00225A710F4B5B78052B06D90A4BAA
:101D600001221A700B4B00225A70FFE700BF0837A0
:101D7000BD4680BD500200204802002028040020FB
:101D800000080140000C014091070020900700204E
:101D90008A050020580200203802002080B483B059
:101DA00000AF786000BF0C37BD4680BC70470000B4
:101DB00080B588B000AF0023FB610023BB60002327
:101DC000BB6100237B6100233B6135E003F0A2FB94
:101DD00003463B600023FB601EE07B6901337B61AF
:101DE00002F00AFB3A4803F09BFC4FF0FF31384801
:101DF00003F070FD364803F073FE0246FB699A4219
:101E000004D9334803F06CFE0346FB61304803F00D
:101E100035FDFB680133FB6003F07CFB02463B6849
:101E2000D31A042BD9D9BA69FB691344BB610023C7
:101E30007B613B6901333B613B69022BC6DDBB69BA
:101E4000244A82FB0312DB17D31ABB60BB6840F63F
:101E5000E44202FB03F3204A82FB03121A44D2122B
:101E6000DB17D31A9AB21D4B1A801C4B1B881846DD
:101E7000FEF7C8FA12A3D3E90023FEF72DFB0246B2
:101E80000B461046194610A3D3E90023FEF76CF960
:101E900002460B4610461946FEF7F6FD0346FB8048
:101EA0000F4B1B78002B03D10E4B1B78002B01D05E
:101EB000002300E0FB8818462037BD4680BD00BFE8
:101EC000A245B6F3FDD41F40000000000012C84038
:101ED000D00200205655555581000880560200203A
:101EE000540200205502002080B582B000AF0023CC
:101EF0007B6000233B6021E002F0BAFA174803F050
:101F00000FFC4FF0FF31154803F0E4FC134803F0D9
:101F1000E7FD034640F6E44203FB02F2104BA3FB4D
:101F20000213D21A52081344DA0A7B6813447B6006
:101F30000A4803F0A3FC3B6801333B603B68312B4C
:101F4000DADD7B68074A82FB03121211DB17D31A12
:101F5000054A136000BF0837BD4680BDD00200208F
:101F6000010110001F85EB514C0200200000000011
:101F7000B0B586B000AF00237B610023FB60002377
:101F80003B610023BB604FF000037B6000233B609C
:101F900003F0C0FA03463B602AE07B6901337B61B2
:101FA00002F066FA504803F0BBFB4FF0FF314E4899
:101FB00003F090FC4C4803F093FD034640F6E442E6
:101FC00003FB02F2494BA3FB0213D21A520813443B
:101FD000DB0A474A12689B1ABB60434803F04EFC79
:101FE000BB6803FB03F3FB603A69FB6813443B6186
:101FF00003F090FA02463B6864339A42CDD33A69C3
:102000007B6992FBF3F31846FEF7FCF902460B4698
:10201000104619460AF0E2FF02460B4610461946E2
:10202000FEF752FD03467B607868FEF7FDF92AA3B0
:10203000D3E90023FEF750FA02460B461046194634
:10204000FEF742FD03462B4A13602A4B1B684FF0F4
:1020500080411846FFF73EF80346002B03D0254B7E
:102060004FF000021A60234B1B681846FEF7DCF99C
:1020700004460D46204B1B681846FEF7C3F918A30B
:10208000D3E90023FEF728FA02460B4620462946EC
:10209000FEF7B2FC0346002B0DD0184B01221A703C
:1020A000174B01221A70174B1B8843F001039AB299
:1020B000144B1A8005E0114B00221A70104B0022BD
:1020C0001A700C4B1B681846FFF722F80346184697
:1020D0001837BD46B0BD00BF34A37AC6191E9E3F57
:1020E0009A9999999999F13FD00200200101100025
:1020F0004C020020500200204802002085050020EC
:10210000550200207405002080B586B000AF002382
:102110007B6100233B610023FB6018E002F08AF939
:102120005B4803F0FDFA4FF0FF31594803F0D2FB52
:10213000574803F0D5FC03463B60554803F09EFB2F
:102140007A693B6813447B61FB680133FB60FB6881
:10215000B3F52F7FE2D37869FEF754F94FF0000210
:102160004C4BFEF7E3FA02460B4610461946FEF7C3
:1021700063FC0346484A1360474B1B681846FEF74A
:1021800041F93FA3D3E90023FEF7A6F902460B4627
:10219000104619463CA3D3E90023FEF79DF90246F9
:1021A0000B46104619464FF000023C4BFEF7BEFAB4
:1021B00002460B4610461946FEF73EFC0346364AD9
:1021C00013600023BB6018E002F0F8F8304803F019
:1021D000A7FA4FF0FF312E4803F07CFB2C4803F0A8
:1021E0007FFC03467B602A4803F048FB3A697B6822
:1021F00013443B61BB680133BB60BB68B3F52F7F01
:10220000E2D33869FEF7FEF84FF00002214BFEF7EB
:102210008DFA02460B4610461946FEF70DFC0346A2
:102220001F4A13601E4B1B681846FEF7EBF814A3F9
:10223000D3E90023FEF750F902460B461046194633
:1022400011A3D3E90023FEF747F902460B461046D7
:1022500019464FF00002114BFEF768FA02460B4692
:1022600010461946FEF7E8FB03460D4A13600A4B79
:102270001A680B4B1B68134418461837BD4680BDBF
:102280009A9CC9999CC9E93F8A1F63EE5AA651409E
:10229000D002002000E085403C02002000408F403A
:1022A0004402002080B586B000AF00237B6100238C
:1022B000FB6000233B610023BB604FF000037B60A9
:1022C00003F028F903463B6029E07B6901337B6119
:1022D00002F0ECF82A4803F023FA4FF0FF312848C7
:1022E00003F0F8FA264803F0FBFB034640F6E4420D
:1022F00003FB02F2234BA3FB0213D21A520813442E
:10230000DB0AA3F27263BB601D4803F0B7FABB6837
:1023100003FB03F3FB603A69FB6813443B6103F082
:10232000F9F802463B6832339A42CED33A697B6968
:1023300092FBF3F31846FEF765F802460B4610468B
:1023400019460AF04BFE02460B4610461946FEF7A8
:10235000BBFB03467B607868FEF766F84FF000022F
:10236000094BFEF7B9F802460B4610461946FEF730
:1023700063FB0346054A136000BF1837BD4680BDA6
:10238000D0020020010110000000D03F40020020D8
:1023900080B584B000AF03F0BDF8F8604FF4006181
:1023A000194804F06DFA0346FB7200BF4FF4006158
:1023B000154804F065FA03461A46FB7A934206D1A3
:1023C00003F0A8F80246FB680A339A42EED303F002
:1023D000A1F87860FB680A337A689A4206D30B4BFF
:1023E0001B8843F001039AB2084B1A80012208218E
:1023F000074804F05CFA01221021054804F057FA5E
:1024000000BF1037BD4680BD0008014074050020A4
:10241000000C014080B584B000AF03F07BF8F86099
:102420004FF40061194804F02BFA0346FB7200BF19
:102430004FF40061154804F023FA03461A46FB7A6C
:10244000934206D103F066F80246FB680A339A42CB
:10245000EED303F05FF87860FB680A337A689A423B
:1024600006D30B4B1B8843F001039AB2084B1A802A
:1024700000220821074804F01AFA0022102105481A
:1024800004F015FA00BF1037BD4680BD00080140BA
:1024900074050020000C014080B584B000AF924B61
:1024A0001B68924A13600023FB6000237B600023BB
:1024B0003B600023BB6016E002F016F88C4803F086
:1024C0002FF94FF0FF318A4803F004FA884803F0EF
:1024D00007FB0246FB681344FB60854803F0CEF916
:1024E000BB680133BB60BB68042BE5DDFB68814A38
:1024F00082FB03125210DB17D31A7B607E4A7B6883
:1025000092FBF3F3A3F51C53103B3B603868FDF7D7
:1025100079FF6FA3D3E90023FEF708F902460B46C3
:1025200010461946FEF7D0FA03466F4A13606E4B09
:102530001B681846FDF778FF02460B461046194601
:102540000AF01AFD02460B4610461946FEF7BCFA81
:102550000346654A1360644B1B6868491846FEF7DA
:10256000C5FC03461A46604B1A605F4B1B68184651
:10257000FDF75AFF58A3D3E90023FDF7F7FD024604
:102580000B4610461946FEF79FFA0346564A13605B
:10259000554B1B6819464FF07E50FEF7A7FC0346CB
:1025A0001A46514B1A60504B1B681846FDF73CFF0A
:1025B0004BA3D3E90023FDF7D7FD02460B46104697
:1025C0001946FEF781FA0346474A1360464B1B68DB
:1025D0004B491846FEF7CEFA03461A46424B1A609C
:1025E000424B1B6847491846FEF76AFD0346002B1D
:1025F00013D03D4B1B6843491846FEF77FFD034649
:10260000002B0AD0404B01221A70404B1B68DA0F96
:1026100013445B101A463E4B1A60344B1B683D490D
:102620001846FEF74DFD0346002B0ED02E4B1B68BF
:1026300038491846FEF762FD0346002B05D0364B9D
:1026400001221A70354B01221A70284B1B6834493D
:102650001846FEF753FD0346002B0BD0224B1B6898
:102660002F491846FEF72CFD0346002B02D0264BBF
:1026700000221A701D4B1B682A491846FEF73EFDC2
:102680000346002B0ED0184B1B6826491846FEF750
:1026900017FD0346002B05D01F4B00221A701F4B5D
:1026A00000221A70104B1B681F491846FEF71CFDCC
:1026B0000346002B00D106E01C4B1B8843F040036F
:1026C0009AB21A4B1A8000BF1037BD4680BD00BFBA
:1026D000000000000088C34083DBB5DCE1796B3F7C
:1026E000666666666612714060050020640500201B
:1026F000D002002067666666F0D8700200E076457A
:102700000000084200008C428805002034000020B0
:10271000540500200000AA42890500205402002030
:10272000000086420000A44200009642740500208A
:1027300080B500AFFFF7E8FC264B1B680A2B13DDC2
:10274000254B01221A70254B1B8843F008039AB2CF
:10275000224B1A80224B01221A70204B1B8843F017
:1027600002039AB21D4B1A801E4B1B680A2B13DD05
:10277000194B01221A70194B1B8843F008039AB2B7
:10278000164B1A80164B01221A70144B1B8823F02B
:1027900002039AB2114B1A800E4B1B68092B17DCEF
:1027A000104B1B68092B13DC0B4B00221A700B4BD0
:1027B0001B8823F008039AB2084B1A80084B0222A8
:1027C0001A70064B1B8823F004039AB2034B1A803D
:1027D00000BF80BD3C0200203000002076050020B4
:1027E000310000204402002082B090B589B000AFD3
:1027F0007B630346FB800B46BB801346FB70F88867
:10280000B988FB8897F834201344013B1C46BB88E9
:1028100097F835201344013B224600F036FC002394
:10282000FB6143E0BA6BFB78203B97F8351001FB66
:1028300003F31946FB690B445B0013441B887B615F
:102840000023BB6129E07A69BB6902FA03F303F450
:102850000043002B0ED0BB8F1B0A9BB2DBB23B7434
:10286000BB8FDBB27B7407F110030221184600F026
:10287000CDF80FE0B7F840301B0A9BB2DBB23B73D8
:10288000B7F84030DBB27B7307F10C030221184626
:1028900000F0BCF8BB690133BB6197F834301A46CD
:1028A000BB699342CFD3FB690133FB6197F83530A5
:1028B0001A46FB699342B5D300BF00BF2437BD461B
:1028C000BDE8904002B0704782B080B588B004AFD8
:1028D0003A60FB610346FB800B46BB8000224FF44D
:1028E0008051254803F0E3FFF023FB73F023BB7313
:1028F0002FE0FB883A7F1A44FB7B9A4214DB0023CB
:10290000FB807B7F9AB2BB881344BB80BB887A7FF5
:102910001A44BB7B9A4221DA3B681B78202B03D1F7
:102920003B6801333B6014E03B681A78B988F8884B
:102930003B8D0293BB8C01933B6A0093FB69FFF7CD
:1029400053FF3B7F9AB2FB881344FB803B68013303
:102950003B603B681B78002BCBD100E000BF01221D
:102960004FF48051044803F0A2FF00BF1037BD466A
:10297000BDE8804002B07047000C014080B582B0D5
:1029800000AF0346FB7100224FF480510B4803F067
:102990008EFF01224FF48071094803F088FFFB1D70
:1029A0000121184600F058F801224FF480510348E5
:1029B00003F07DFF00BF0837BD4680BD000C01401D
:1029C0000008014080B582B000AF0346FB710022D1
:1029D0004FF480510B4803F06AFF00224FF48071DE
:1029E000094803F064FFFB1D0121184600F034F88C
:1029F00001224FF48051034803F059FF00BF08370C
:102A0000BD4680BD000C01400008014080B582B089
:102A100000AF78600B467B8000224FF480510C4859
:102A200003F045FF01224FF480710A4803F03FFF95
:102A30007B881946786800F00FF801224FF4805126
:102A4000034803F034FF00BF0837BD4680BD00BF18
:102A5000000C01400008014080B584B000AF7860F0
:102A60000B467B807B881A467968084805F026FA71
:102A70000346FB7300BF054805F0F1FA0346012B3E
:102A8000F9D1FB7B18461037BD4680BD44030020BA
:102A900080B500AF01224FF48051FD4803F007FFDD
:102AA000052002F041FD00224FF48041F84803F078
:102AB000FEFE0A2002F038FD01224FF48041F44866
:102AC00003F0F5FE782002F02FFDEF20FFF77AFFEC
:102AD000EB20FFF777FF1420FFF750FFFE20FFF7F2
:102AE00071FFEF20FFF76EFFEB20FFF76BFF142065
:102AF000FFF744FF8420FFF765FF4020FFF73EFF0C
:102B00008520FFF75FFFFF20FFF738FF8620FFF7E4
:102B100059FFFF20FFF732FF8720FFF753FFFF2009
:102B2000FFF72CFF8820FFF74DFF0A20FFF726FF55
:102B30008920FFF747FF2120FFF720FF8A20FFF7BA
:102B400041FF0020FFF71AFF8B20FFF73BFF80209B
:102B5000FFF714FF8C20FFF735FF0120FFF70EFF72
:102B60008D20FFF72FFF0120FFF708FF8E20FFF7D2
:102B700029FFFF20FFF702FF8F20FFF723FFFF2031
:102B8000FFF7FCFEB620FFF71DFF0020FFF7F6FE63
:102B90000020FFF7F3FE3620FFF714FF2820FFF791
:102BA000EDFE3A20FFF70EFF0520FFF7E7FE90202D
:102BB000FFF708FF0820FFF7E1FE0820FFF7DEFE21
:102BC0000820FFF7DBFE0820FFF7D8FEBD20FFF747
:102BD000F9FE0620FFF7D2FEBC20FFF7F3FE00202F
:102BE000FFF7CCFEFF20FFF7EDFE6020FFF7C6FEEB
:102BF0000120FFF7C3FE0420FFF7C0FEC320FFF74C
:102C0000E1FE1320FFF7BAFEC420FFF7DBFE13201E
:102C1000FFF7B4FEC920FFF7D5FE2220FFF7AEFE76
:102C2000BE20FFF7CFFE1120FFF7A8FEE120FFF73F
:102C3000C9FE1020FFF7A2FE0E20FFF79FFEDF2047
:102C4000FFF7C0FE2120FFF799FE0C20FFF796FE4C
:102C50000220FFF793FEF020FFF7B4FE4520FFF7B8
:102C60008DFE0920FFF78AFE0820FFF787FE082067
:102C7000FFF784FE2620FFF781FE2A20FFF77EFE65
:102C8000F120FFF79FFE4320FFF778FE7020FFF74B
:102C900075FE7220FFF772FE3620FFF76FFE3720B9
:102CA000FFF76CFE6F20FFF769FEF220FFF78AFE48
:102CB0004520FFF763FE0920FFF760FE0820FFF7BD
:102CC0005DFE0820FFF75AFE2620FFF757FE2A2058
:102CD000FFF754FEF320FFF775FE4320FFF74EFE8B
:102CE0007020FFF74BFE7220FFF748FE3620FFF7FB
:102CF00045FE3720FFF742FE6F20FFF73FFEED2035
:102D0000FFF760FE1B20FFF739FE0B20FFF736FEB2
:102D1000AE20FFF757FE7720FFF730FECD20FFF7FC
:102D200051FE6320FFF72AFE7020FFF74BFE0720BD
:102D3000FFF724FE0720FFF721FE0420FFF71EFE09
:102D40000E20FFF71BFE0F20FFF718FE0920FFF7EC
:102D500015FE0720FFF712FE0820FFF70FFE0320E5
:102D6000FFF70CFEE820FFF72DFE3420FFF706FEEC
:102D70006220FFF727FE1820FFF700FE0D20FFF767
:102D8000FDFD7120FFF7FAFDED20FFF7F7FD702044
:102D9000FFF7F4FD7020FFF7F1FD1820FFF7EEFDBF
:102DA0000F20FFF7EBFD7120FFF7E8FDEF20FFF7A5
:102DB000E5FD7020FFF7E2FD7020FFF7DFFD6320E7
:102DC000FFF700FE1820FFF7D9FD1120FFF7D6FD11
:102DD0007120FFF7D3FDF120FFF7D0FD7020FFF742
:102DE000CDFD7020FFF7CAFD1820FFF7C7FD1320A7
:102DF000FFF7C4FD7120FFF7C1FDF320FFF7BEFD13
:102E00007020FFF7BBFD7020FFF7B8FD6420FFF7CF
:102E1000D9FD2820FFF7B2FD2920FFF7AFFDF120F3
:102E2000FFF7ACFD0120FFF7A9FDF120FFF7A6FD9C
:102E30000020FFF7A3FD0720FFF7A0FD6620FFF7A6
:102E4000C1FD3C20FFF79AFD0020FFF797FDCD2044
:102E5000FFF794FD6720FFF791FD4520FFF78EFDFA
:102E60004520FFF78BFD1020FFF788FD0020FFF7BE
:102E700085FD0020FFF782FD0020FFF77FFD672022
:102E8000FFF7A0FD0020FFF779FD3C2002E000BF26
:102E9000000C0140FFF772FD0020FFF76FFD0020DE
:102EA000FFF76CFD0020FFF769FD0120FFF766FDCD
:102EB0005420FFF763FD1020FFF760FD3220FFF77D
:102EC0005DFD9820FFF75AFD7420FFF77BFD102071
:102ED000FFF754FD8520FFF751FD8020FFF74EFDE1
:102EE0000020FFF74BFD0020FFF748FD4E20FFF7C5
:102EF00045FD0020FFF742FD9820FFF763FD3E20CF
:102F0000FFF73CFD0720FFF739FD3520FFF75AFD9D
:102F10002120FFF757FD1120FFF754FD782002F024
:102F200003FB2920FFF74EFD142002F0FDFA00BF3D
:102F300080BD00BF80B584B002AF78607B6800932D
:102F4000F023F0220021002000F004F800BF083731
:102F5000BD4680BD2DE9F0438FB000AFF860B96089
:102F60007A603B606B461E46BB6D1B0A87F83330A8
:102F7000BB6D87F8323097F832309BB21B029AB2A1
:102F800097F833309BB213443B867A68FB68D31AB8
:102F90003968BA688A1A02FB03F35B00FB624FF4DC
:102FA0000073BB62FB6ABA6AB3FBF2F2B96A01FB57
:102FB00002F29B1AFA6AD21ABB6AB2FBF3F37B6283
:102FC000FB6ABA6AB3FBF2F2B96A01FB02F29B1A1E
:102FD0003B62B96A0B46013BFB6100238846994678
:102FE0004FF000024FF000034FEA091343EA187351
:102FF0004FEA081200230C461D464FF000024FF026
:1030000000032B0143EA147322014B000733DB0852
:10301000DB00ADEB030D6B4601335B085B00BB616E
:1030200000237B6307E0BB697A6B398E23F81210AB
:103030007B6B01337B637A6BBB6A9A42F3D37B6809
:103040005A1E3B68013BB968F86800F01EF8BB697E
:103050007B6100237B6308E0BB6A9BB219467869F9
:10306000FFF7D4FC7B6B01337B637A6B7B6A9A42FC
:10307000F2D33B6A9BB219467869FFF7C7FCB546A5
:1030800000BF3C37BD46BDE8F08380B584B000AFDB
:10309000F860B9607A603B602A20FFF793FCFB6818
:1030A0001B0ADBB21846FFF769FCFB68DBB2184667
:1030B000FFF764FC7B681B0ADBB21846FFF75EFC77
:1030C0007B68DBB21846FFF759FC2B20FFF77AFC30
:1030D000BB681B0ADBB21846FFF750FCBB68DBB2CB
:1030E0001846FFF74BFC3B681B0ADBB21846FFF79C
:1030F00045FC3B68DBB21846FFF740FC2C20FFF78D
:1031000061FC00BF1037BD4680BD000080B584B0B3
:1031100004AF5F4B1B78002B28D15D4B1A785D4BB9
:103120001B789A4202D00020FFF704FF584B1A7810
:10313000584B1A70584B002202924FF6FF720192C0
:103140005A6800921B68554A6B212820FFF7BCFB88
:10315000534B00221A70524B00225A70504B0022DF
:103160009A7000224E494F4804F012FA484B1B78DF
:10317000012B40F0BD80464B1A78464B1B789A4293
:1031800002D00020FFF7D6FE414B1A78414B1A704F
:10319000434B00221A70424B00225A70404B0022CF
:1031A0009A7000223E493F4804F0F2F93E493F48F8
:1031B00007F06AFC384B002202924FF6FF72019230
:1031C0005A6800921B68394A2B211220FFF77CFBBA
:1031D00000223349334804F0DBF9314B1B781A469F
:1031E0002F4B5B7819462E4B9B7800930B4630494A
:1031F0002E4807F049FC284B002202924FF6FF723E
:1032000001925A6800921B68284A61211820FFF732
:103210005BFB284B1B6828491846FDF767FE0346F1
:103220001846FDF701F902460B4624491F4807F0EE
:103230002BFC1E48FCF78CFF03461B015B089BB26E
:10324000C3F1780398B2144B002202924FF4FC624F
:1032500001925A6800921B68144A9321FFF734FBCD
:10326000174B1B78002B31D01649104807F00CFC87
:10327000154B002202924FF4FC6201925A680092B0
:103280001B680A4AC5215220FFF71EFB30E000BF31
:10329000910700205E0200202400002024D50008B1
:1032A0008C0500203003002030D50008600200208B
:1032B00040D500085C05002000007A4454D5000881
:1032C0008705002060D500081C000020A549A648FD
:1032D00007F0DAFBA54B002202924FF6E072019252
:1032E0005A6800921B68A04AC5215220FFF7ECFAE9
:1032F0009F4B1B78022B73D19D4B1A789D4B1B78EB
:103300009A4202D00020FFF715FE994B1A78994B8C
:103310001A709949944807F0B7FB984B0022029223
:103320004FF4FC6201925A6800921B688E4A2B216E
:103330001220FFF7C9FA924B1B781A46904B5B7824
:1033400019468F4B9B7800930B468E49864807F0B1
:103350009BFB8A4B002202924FF6FF7201925A6841
:1033600000921B68804A61211820FFF7ADFA864B56
:103370001B6886491846FDF7B9FD03461846FDF758
:1033800053F802460B468249774807F07DFB7648A2
:10339000FCF7DEFE03461B015B089BB2C3F178031A
:1033A00098B2764B002202924FF4FC6201925A6866
:1033B00000921B686C4A9321FFF786FA75496A48A8
:1033C00007F062FB694B002202924FF4FC6201920B
:1033D0005A6800921B68644AC5215720FFF774FAA7
:1033E000634B1B78032B73D1614B1A78614B1B78AD
:1033F0009A4202D00020FFF79DFD5D4B1A785D4B8D
:103400001A706549584807F03FFB5C4B0022029256
:103410004FF6FF7201925A6800921B68524A2B21A4
:103420001220FFF751FA564B1B781A46544B5B7823
:103430001946534B9B7800930B4652494A4807F074
:1034400023FB4E4B002202924FF6FF7201925A6804
:1034500000921B68444A61211820FFF735FA4A4B55
:103460001B684A491846FDF741FD03461846FCF71C
:10347000DBFF02460B4646493B4807F005FB3A484E
:10348000FCF766FE03461B015B089BB2C3F17803A1
:1034900098B23A4B002202924FF4FC6201925A68B1
:1034A00000921B68304A9321FFF70EFA39492E48E3
:1034B00007F0EAFA2D4B002202924FF4FC620192CF
:1034C0005A6800921B68284AC5215720FFF7FCF96B
:1034D000274B1B78042B40F09C80254B1A78254BFA
:1034E0001B789A4202D00020FFF724FD204B1A7867
:1034F000204B1A7029491C4807F0C6FA1F4B0022BE
:1035000002924FF4FC6201925A6800921B68164ABC
:103510002B211A20FFF7D8F900221949204804F07E
:10352000CFF8204B1B681846FCF77EFF02460B467F
:103530001D490D4807F0A8FA104B002202924FF6E1
:103540001F0201925A6800921B68074A5D213220CF
:10355000FFF7BAF90C4B1B680C491846FDF7C6FC7F
:1035600024E000BF68D50008600200201C00002095
:10357000910700205E02002070D500082400002082
:103580008C05002040D500085C05002000007A442E
:1035900054D5000880D5000830D5000888D500082B
:1035A000300300205002002098D50008034618463A
:1035B000FCF73AFF02460B465049514807F064FABF
:1035C0004F48FCF7C5FD03461B015B089BB2C3F1E6
:1035D000780398B24B4B002202924FF4FC620192A6
:1035E0005A6800921B68464A9321FFF76DF94649D5
:1035F000434807F049FA454B002202924FF4FC621F
:1036000001925A6800921B683D4AC5215720FFF776
:103610005BF93F4B1B78062B4AD13D4B1A783D4B4B
:103620001B789A4202D00020FFF784FC384B1A78AE
:10363000384B1A703849324807F026FA314B0022CD
:1036400002924FF4784201925A6800921B682C4A09
:103650006B211820FFF738F9304B1B78012B11D163
:103660002F49274807F010FA264B002202924FF408
:10367000784201925A6800921B68214A8C210A20E4
:10368000FFF722F9274B1B78002B11D026491C4845
:1036900007F0FAF91B4B002202924FF47842019294
:1036A0005A6800921B68164A8C211420FFF70CF907
:1036B000174B1B78052B1ED1154B1A78154B1B7811
:1036C0009A4202D00020FFF735FC114B1A78114BBB
:1036D0001A7016490A4807F0D7F90A4B00220292DD
:1036E0004FF4784201925A6800921B68044A6B2199
:1036F0001A20FFF7E9F800BFBD4680BD54D5000889
:10370000600200202400002080D500081C0000205A
:10371000910700205E020020A0D50008540200207E
:10372000B0D5000855020020C4D50008D4D5000843
:1037300080B582B000AF78600B467B80264B1B784B
:10374000072B3DD1244B5B78013B0F2B34D801A2D2
:1037500052F823F0A1370008A73700089537000872
:103760009B370008B9370008AD370008B9370008A3
:10377000B9370008B9370008B9370008B937000869
:10378000B9370008B9370008B9370008B937000859
:10379000B337000800F018FF13E000F087FF10E0D7
:1037A00000F0F6FF0DE001F0A1F80AE001F0C6F923
:1037B00007E001F049F904E0012000F0E5FE00E037
:1037C00000BF4FF480720449044806F055F800BF6A
:1037D0000837BD4680BD00BF9005002000050020D1
:1037E00080B500AF01F03EFE00F078F900F078FC03
:1037F00000F058FC00F0D4F900F012FB00F028FCB7
:1038000000F03AFA00F01CFA00F06CFA00F0CCFB81
:1038100000F0EEF900F07AFB4FF480728D498E488B
:1038200006F02AF88D4B30225A808C4B01229A8167
:103830008B4B1B689AB2894B5A814FF4FA7001F096
:1038400073FE884804F0DAFD874804F08DFD3C21C2
:10385000864805F019F8FDF7A1FC854B1B78002B75
:103860000AD0844B1B781A46834B53F82230834A84
:1038700012681046984709E07E4B1B781A467E4B2B
:1038800053F82230764A12681046984701F0A0F9A2
:103890007B4B1B68B3F5E16F08DB764B1B78002B85
:1038A00004D1774B00221A60FFF7F2F8754B1B78B2
:1038B000002B16D0744B1B68DAB2744B1A70744B21
:1038C0001B68DAB2714B5A70724B1B68DAB26F4BDD
:1038D0009A7000226D49704803F05AFE694B00222D
:1038E0001A706E4B1B78002B04D06C4B00221A70A0
:1038F000FEF7D2FD6A4B1B78002BAED0FFF706FC1B
:10390000674B00221A70674B1B78002B03D1664B64
:103910001B78002B14D001228021644802F0C7FFDD
:10392000604B00221A70604B00221A70604B01221B
:103930001A70604B00221A705F4B00221A7088E0E8
:103940005E4B1B78002B2FD05D4B1B78002B18D0C3
:1039500001224FF48051554802F0A9FF01224FF493
:103960000041524802F0A3FF544B00221A70504B02
:1039700000221A704F4B01221A704F4B01221A700D
:103980006BE701224FF48051484802F090FF4B4B07
:1039900000221A70464B00221A70464B01221A7000
:1039A000454B00221A7058E7464B1B78002B12D06B
:1039B00001224FF400413D4802F079FF414B0022C3
:1039C0001A703B4B00221A703A4B00221A703A4B85
:1039D00001221A7041E73C4B1A783C4B1B78134389
:1039E000DAB23B4B1B781343DAB23A4B1B781343E2
:1039F000DAB2394B1B781343DBB2002B3FF42DAF07
:103A000000228021294802F052FF00224FF4805109
:103A1000264802F04CFF00224FF40041234802F0F8
:103A200046FF294B00221A70284B00221A70284B9F
:103A300000221A70284B00221A70264B00221A709E
:103A40001B4B00221A701B4B00221A701A4B0022CB
:103A50001A7002E790050020000500209402002063
:103A600034000020E003002070040020B80400208F
:103A70008805002091070020000000205405002048
:103A8000480500204C050020680500208C0500201A
:103A90006C05002070050020300300208605002002
:103AA00044050020780500207A0500200008014028
:103AB0008205002083050020840500207C0500206D
:103AC0008505002080050020790500207B05002069
:103AD0007D050020810500207F05002080B594B081
:103AE00000AF07F1280328220021184606F064FBE6
:103AF00007F1140300221A605A609A60DA601A61B2
:103B00003B1D00221A605A609A60DA600923BB628A
:103B10004FF48033FB624FF400333B630123BB63FC
:103B200001233B6402237B644FF48033BB644FF476
:103B3000E013FB6407F12803184602F0FFFE03467A
:103B4000002B01D000F0EEFC0F237B610223BB6150
:103B50000023FB614FF480633B6200237B6207F12B
:103B600014030221184603F06BF90346002B01D021
:103B700000F0D8FC03237B604FF40073BB604FF46C
:103B80000043FB603B1D184603F0F4FA0346002B8C
:103B900001D000F0C7FC00BF5037BD4680BD00001B
:103BA00080B500AF104B114A1A600F4B4FF4807272
:103BB0009A600D4B01221A730B4B00221A750A4BA7
:103BC0004FF46022DA61084B00225A60064B012252
:103BD0001A61054801F0CCFC0346002B01D000F02F
:103BE000A1FC00BF80BD00BFD00200200024014026
:103BF00080B500AF104B114A1A600F4B4FF4807222
:103C00009A600D4B01221A730B4B00221A750A4B56
:103C10004FF46022DA61084B00225A60064B012201
:103C20001A61054801F0A4FC0346002B01D000F006
:103C300079FC00BF80BD00BF0003002000280140C8
:103C400080B500AF0A4B0B4A1A60094B4FF0FF32A8
:103C50005A60074B4FF480729A60054803F002FCEB
:103C60000346002B01D000F05DFC00BF80BD00BF0B
:103C7000300300200028004080B500AF174B184AE1
:103C80001A60164B4FF482725A60144B00229A60ED
:103C9000124B0022DA60114B00221A610F4B0022F6
:103CA0005A610E4B4FF400729A610C4B0022DA619C
:103CB0000A4B00221A62094B00225A62074B00226B
:103CC0009A62064B0A22DA62044804F073F803464B
:103CD000002B01D000F026FC00BF80BD4403002073
:103CE0000038004080B596B000AF07F148030022CD
:103CF0001A605A609A60DA6007F1400300221A6085
:103D00005A6007F1240300221A605A609A60DA6050
:103D10001A615A619A613B1D20220021184606F063
:103D20004BFA3D4B3D4A1A603B4B41F61F425A60ED
:103D3000394B00229A60384B0922DA60364B002258
:103D40001A61354B00225A61334B00229A61324886
:103D500004F0BAFA0346002B01D000F0E3FB4FF465
:103D60008053BB6407F1480319462B4805F058F807
:103D70000346002B01D000F0D5FB274804F090FB50
:103D80000346002B01D000F0CDFB00233B64002351
:103D90007B6407F1400319461F4805F0CDFB03463D
:103DA000002B01D000F0BEFB00237B620023BB622E
:103DB0000023FB6200233B6300237B630023BB6380
:103DC0000023FB6307F1240300221946124804F084
:103DD00011FF0346002B01D000F0A4FB00237B6001
:103DE0000023BB600023FB6000233B6100237B6159
:103DF0004FF40053BB6100233B623B1D194606484C
:103E000005F0F8FB0346002B01D000F08BFB00BF50
:103E10005837BD4680BD00BFE0030020002C0140A4
:103E200080B58EB000AF07F1280300221A605A60F7
:103E30009A60DA6007F1200300221A605A603B1D85
:103E400000221A605A609A60DA601A615A619A61B7
:103E50002D4B4FF080421A602B4B47225A602A4B61
:103E600000229A60284B40F2E732DA60264B0022AB
:103E70001A61254B00229A61234804F025FA034673
:103E8000002B01D000F04EFB4FF48053BB6207F1D2
:103E9000280319461C4804F0C3FF0346002B01D039
:103EA00000F040FB184804F053FB0346002B01D000
:103EB00000F038FB00233B6200237B6207F1200304
:103EC0001946114805F038FB0346002B01D000F0DD
:103ED00029FB60237B600023BB600023FB60002381
:103EE0007B613B1D04221946074804F0DBFE0346B4
:103EF000002B01D000F016FB034801F0EBF800BFE7
:103F00003837BD4680BD00BF2804002080B586B08C
:103F100000AF07F1080300221A605A609A60DA6065
:103F20003B4600221A605A601D4B1E4A1A601C4B09
:103F300047225A601A4B00229A60194B4FF6FF72C3
:103F4000DA60174B00221A61154B00229A6114485F
:103F500004F0BAF90346002B01D000F0E3FA4FF465
:103F60008053BB6007F1080319460D4804F058FF61
:103F70000346002B01D000F0D5FA00233B6000235C
:103F80007B603B461946064805F0D6FA0346002BEF
:103F900001D000F0C7FA00BF1837BD4680BD00BF92
:103FA000700400200004004080B58CB000AF07F121
:103FB0000C0324220021184606F0FEF83B1D0022C7
:103FC0001A605A60204B214A1A601F4B00225A6027
:103FD0001D4B00229A601C4B4FF6FF72DA601A4BA1
:103FE00000221A61184B00229A610323FB60002310
:103FF0003B6101237B610023BB610023FB61022342
:104000003B6201237B620023BB620023FB6207F15A
:104010000C0319460C4804F095FB0346002B01D015
:1040200000F080FA00237B600023BB603B1D194633
:10403000054805F081FA0346002B01D000F072FA22
:1040400000BF3037BD4680BDB804002000080040E6
:1040500080B500AF114B124A1A60104B4FF4E13299
:104060005A600E4B00229A600C4B0022DA600B4B18
:1040700000221A61094B0C225A61084B00229A61F6
:10408000064B0022DA61054805F017FB0346002BBA
:1040900001D000F047FA00BF80BD00BF000500203E
:1040A0000038014080B582B000AF0C4B5B690B4A11
:1040B00043F001035361094B5B6903F001037B602B
:1040C0007B68002200210F2001F081FF0F2001F00A
:1040D0009AFF00BF0837BD4680BD00BF00100240F8
:1040E00080B588B000AF07F1100300221A605A6053
:1040F0009A60DA60564B9B69554A43F0100393610E
:10410000534B9B6903F01003FB60FB68504B9B69AA
:104110004F4A43F0200393614D4B9B6903F020030A
:10412000BB60BB684A4B9B69494A43F004039361F7
:10413000474B9B6903F004037B607B68444B9B699E
:10414000434A43F008039361414B9B6903F0080322
:104150003B603B6800224FF400513E4802F0A7FB51
:10416000002249F280113C4802F0A1FB002245F2F6
:1041700018013A4802F09BFB4FF400533B610123C6
:104180007B610023BB610223FB6107F11003194629
:10419000304802F0F1F949F280133B6101237B6161
:1041A0000023BB610223FB6107F1100319462A4873
:1041B00002F0E2F94FF440633B6100237B6100238E
:1041C000BB6107F110031946244802F0D5F945F206
:1041D00018033B6101237B610023BB610223FB6168
:1041E00007F1100319461D4802F0C6F94FF40063A9
:1041F0003B6100237B610123BB6107F1100319467A
:10420000154802F0B9F920233B61154B7B6101236E
:10421000BB6107F110031946104802F0ADF94FF4E5
:1042200040733B6100237B610223BB6107F11003F4
:1042300019460A4802F0A0F900220021172001F0D7
:10424000C6FE172001F0DFFE00BF2037BD4680BD4F
:10425000001002400010014000080140000C014025
:104260000000211080B582B000AF78607B683E4AC4
:10427000934274D13D4B1B6801333C4A13603B4B66
:104280001B68B3F57A7F6ADB384B00221A60384B23
:104290001B6838491846FCF729FE03461A46364B78
:1042A0001B6819461046FCF765FC03461A46324B5C
:1042B0001A60324B01221A70314B01221A70314BB5
:1042C0001B6801332F4A13602F4B1B78012B0AD137
:1042D0002E4B1B78002B03D12D4B01221A7002E0CC
:1042E0002C4B01221A70284B1B78032B0AD12A4B26
:1042F0001B78002B03D1294B01221A7002E0284BB6
:1043000001221A70204B1B78042B0AD1224B1B78F8
:10431000002B03D1234B01221A7002E0204B012213
:104320001A70194B1B78062B0AD11F4B1B78002BD8
:1043300003D11E4B01221A7002E01D4B01221A709C
:10434000114B1B78052B0AD1174B1B78002B03D17F
:10435000184B01221A7002E0174B01221A7000BF9D
:104360000837BD4680BD00BFE00300205005002097
:1043700058050020000061455C0500204405002030
:1043800086050020480500209107002082050020B6
:104390007805002079050020830500207A0500209B
:1043A0007D0500207C05002084050020800500207C
:1043B000810500207E0500207F05002080B584B0A7
:1043C00000AF3B1D00221A605A609A6002237B6096
:1043D0000123BB600023FB603B1D1946054801F02B
:1043E0008BFB0346002B01D000F09CF800BF103778
:1043F000BD4680BDD002002080B584B000AF3B1D1B
:1044000000221A605A609A6003237B600123BB601C
:104410000023FB603B1D1946054801F06DFB034678
:10442000002B01D000F07EF800BF1037BD4680BDE4
:10443000D002002080B584B000AF3B1D00221A607E
:104440005A609A6004237B600123BB600023FB60F9
:104450003B1D1946054801F04FFB0346002B01D0D8
:1044600000F060F800BF1037BD4680BDD0020020CC
:1044700080B584B000AF3B1D00221A605A609A607C
:1044800005237B600123BB600023FB603B1D1946B5
:10449000054801F031FB0346002B01D000F042F843
:1044A00000BF1037BD4680BDD002002080B584B06B
:1044B00000AF3B1D00221A605A609A6006237B60A1
:1044C0000123BB600023FB603B1D1946054801F03A
:1044D00013FB0346002B01D000F024F800BF103777
:1044E000BD4680BDD002002080B584B000AF3B1D2A
:1044F00000221A605A609A6009237B600123BB6026
:104500000023FB603B1D1946054801F0F5FA034600
:10451000002B01D000F006F800BF1037BD4680BD6B
:10452000D002002080B400AF72B600BFFEE70000EA
:1045300080B584B000AF786039603B689BB21946A3
:10454000786800F0C1FB0346FB813B687A6813443E
:10455000FA89D2B21A70FB891B0A99B23B680133FF
:104560007A681344CAB21A703B689BB202339AB29B
:104570004FF47A737968034805F0ECF800BF103700
:10458000BD4680BD0005002080B582B000AF034667
:10459000FB710B4B1A780B4B1A70094B5B7863F06D
:1045A0007F03DAB2074B5A70064AFB7993700321F6
:1045B0000448FFF7BDFF00BF0837BD4680BD00BF00
:1045C000900500209006002080B584B000AF344BE9
:1045D0009B781B021AB2324BDB781BB213431BB21F
:1045E000FB812F4B1B791B021AB22D4B5B791BB23F
:1045F00013431BB27B807B88002B02D07B887D2BF2
:1046000004D90320FFF7C0FF002344E0FA897B8828
:1046100013449BB2013B3B803B88312B04D90220E1
:10462000FFF7B2FF002336E01E4B07221A701C4B27
:104630005A781C4B5A707B88DBB25B00DAB2194B9C
:104640009A700323BB6000237B601BE0FB89164A42
:1046500032F813301B0A99B2BB685A1CBA60C9B24F
:10466000104AD154FB89104A32F81310BB685A1C07
:10467000BA60C9B20B4AD154FB890133FB817B6814
:1046800001337B607B887A689A42DFDBB968054832
:10469000FFF74EFF012318461037BD4680BD00BF0F
:1046A00090050020900600209402002080B584B080
:1046B00000AF344B9B781B021AB2324BDB781BB233
:1046C00013431BB2FB812F4B1B791B021AB22D4BDC
:1046D0005B791BB213431BB27B807B88002B02D01B
:1046E0007B887D2B04D90320FFF74EFF002344E095
:1046F000FA897B8813449BB2013B3B803B88312B7A
:1047000004D90220FFF740FF002336E01E4B0722AA
:104710001A701C4B5A781C4B5A707B88DBB25B00BA
:10472000DAB2194B9A700323BB6000237B601BE055
:10473000FB89164A32F813301B0A99B2BB685A1C1F
:10474000BA60C9B2104AD154FB89104A32F813102A
:10475000BB685A1CBA60C9B20B4AD154FB890133F9
:10476000FB817B6801337B607B887A689A42DFDB60
:10477000B9680548FFF7DCFE012318461037BD462F
:1047800080BD00BF9005002090060020C4020020DC
:1047900080B588B000AF524B9B781B021AB2504BC9
:1047A000DB781BB213431BB27B814D4B1B791B0281
:1047B0001AB24B4B5B791BB213431BB23B813B8953
:1047C000002B03D03B89B3F5FA6F04D90320FFF720
:1047D000DBFE002380E07A893B8913449BB2013BD6
:1047E000FB80FB88C72B04D90220FFF7CDFE0023F6
:1047F00072E04FF4807200213A4805F0DDFC394B3D
:1048000007221A70364B5A78364B5A703B89DB08B0
:104810009BB2DBB23A8902F0070292B2002A14BFBF
:1048200001220022D2B21344DAB22E4B9A70032333
:10483000FB617B89DB089BB2BB617B8903F00703CB
:10484000FB8200233B610023FB6033E0254AFB69C8
:1048500013441B785AB22449BB690B441B78194690
:10486000FB8A41FA03F303F001013B6901FA03F308
:104870005BB213435BB2D9B21A4AFB6913440A46CE
:104880001A703B6901333B61FB8A0133FB823B6950
:10489000072B04DD00233B61FB690133FB61FB8ACD
:1048A000072B04D90023FB82BB690133BB61FB6882
:1048B0000133FB603B89FA689A42C7DB3B8903F00E
:1048C00007039BB2002B02D0FB690133FB61F9693E
:1048D0000448FFF72DFE012318462037BD4680BD52
:1048E0009005002090060020C802002080B588B006
:1048F00000AF524B9B781B021AB2504BDB781BB2B5
:1049000013431BB27B814D4B1B791B021AB24B4BDD
:104910005B791BB213431BB23B813B89002B03D055
:104920003B89B3F5FA6F04D90320FFF72DFE00236E
:1049300080E07A893B8913449BB2013BFB80FB8872
:10494000C72B04D90220FFF71FFE002372E04FF4AB
:10495000807200213A4805F02FFC394B07221A706B
:10496000364B5A78364B5A703B89DB089BB2DBB228
:104970003A8902F0070292B2002A14BF01220022F3
:10498000D2B21344DAB22E4B9A700323FB617B89B7
:10499000DB089BB2BB617B8903F00703FB8200232A
:1049A0003B610023FB6033E0254AFB6913441B781D
:1049B0005AB22449BB690B441B781946FB8A41FA59
:1049C00003F303F001013B6901FA03F35BB2134304
:1049D0005BB2D9B21A4AFB6913440A461A703B69A2
:1049E00001333B61FB8A0133FB823B69072B04DD0A
:1049F00000233B61FB690133FB61FB8A072B04D970
:104A00000023FB82BB690133BB61FB680133FB60A0
:104A10003B89FA689A42C7DB3B8903F007039BB2E4
:104A2000002B02D0FB690133FB61F9690448FFF7F1
:104A30007FFD012318462037BD4680BD900500202C
:104A400090060020CC02002080B584B000AF384B27
:104A50009B781B021AB2364BDB781BB213431BB296
:104A6000FB81334B1B791B021AB2314B5B791BB2B2
:104A700013431BB27B807B88002B02D07B887B2B6F
:104A800004D90320FFF780FD00234CE0FA897B88DE
:104A900013449BB2013B3B803B88312B04D902205D
:104AA000FFF772FD00233EE00723BB6000237B601D
:104AB00019E0BB685A1CBA601D4AD35C1B021AB2CB
:104AC000BB68591CB9601A49CB5C1BB2134319B2BD
:104AD000FB895A1CFA811A4689B2164B23F8121028
:104AE0007B6801337B607B887A689A42E1DB124BFA
:104AF00007221A700E4B5A780F4B5A700C4B9A784B
:104B00000D4B9A700A4BDA780B4BDA70084B1A7916
:104B1000094B1A71064B5A79074B5A710621064800
:104B2000FFF706FD012318461037BD4680BD00BFC4
:104B300090050020940200209006002080B582B0ED
:104B400000AF204B9B781B021AB21E4BDB781BB2C6
:104B500013431BB2FB80FB88312B04D90220FFF7E3
:104B600013FD002329E0174B1B791B021AB2154BCA
:104B70005B791BB213431AB2FB8891B2124A22F836
:104B80001310124B07221A700E4B5A780F4B5A70A3
:104B90000C4B9A780D4B9A700A4BDA780B4BDA7003
:104BA000084B1A79094B1A71064B5A79074B5A71FF
:104BB00006210648FFF7BCFC012318460837BD460E
:104BC00080BD00BF900500209402002090060020C8
:104BD00080B500AF2C4B1B789AB22C4B5A802C4BD3
:104BE0001B681846FCF7BAFA03469AB2274B9A801C
:104BF000284B1A88254BDA80274B1B681846FCF790
:104C0000ADFA03469AB2214B1A81244B1B68184611
:104C1000FCF7A4FA03469AB21C4B5A84204B1B683B
:104C20001846FCF79BFA03469AB2184B9A841D4B20
:104C30001A88164BDA841C4B1A88144B1A851B4BA6
:104C40001B689AB2114B9A85194B1B689AB20F4B8D
:104C50001A86184B1B689AB20C4BDA85164B1B68E8
:104C60009AB20A4B5A85094B9B89DAB2134B1A70D8
:104C7000064B1B8ADAB2124B1A70044B5B891A4638
:104C8000104B1A6000BF80BD9107002094020020E5
:104C90005C0500208A0500205002002060050020ED
:104CA0005805002074050020760500203C020020F5
:104CB00040020020440200202C0000203800002088
:104CC000870500203400002080B485B000AF7860F4
:104CD0000B467B80FF23FB73FF23BB7313E07B68D2
:104CE0005A1C7A601A78BB7B5340DBB2BB600F4A18
:104CF000BB6813441A78FB7B5340BB730C4ABB68F8
:104D000013441B78FB737B885A1E7A80002BE6D1F4
:104D1000FB7B1B021AB2BB7B1BB213431BB29BB2C1
:104D200018461437BD4680BC704700BF9CEB000896
:104D30009CEC000880B485B000AF154B9B69144A09
:104D400043F001039361124B9B6903F00103BB60C5
:104D5000BB680F4BDB690E4A43F08053D3610C4BA9
:104D6000DB6903F080537B607B680A4B5B68FB6008
:104D7000FB6823F0E063FB60FB6843F00073FB60BB
:104D8000044AFB68536000BF1437BD4680BC7047BF
:104D9000001002400000014080B58CB000AF786088
:104DA00007F1200300221A605A609A60DA607B687B
:104DB0001B68334A934238D1324B9B69314A43F4E2
:104DC000007393612F4B9B6903F40073FB61FB69D4
:104DD0002C4B9B692B4A43F004039361294B9B693D
:104DE00003F00403BB61BB69264B9B69254A43F072
:104DF00008039361234B9B6903F008037B617B6984
:104E00007C233B6203237B6207F1200319461E4883
:104E100001F0B2FB02233B6203237B6207F1200314
:104E200019461A4801F0A8FB26E07B681B68184A5F
:104E3000934221D1134B9B69124A43F480639361DF
:104E4000104B9B6903F480633B613B690D4B9B698D
:104E50000C4A43F0040393610A4B9B6903F004037B
:104E6000FB60FB6840233B6203237B6207F1200366
:104E70001946054801F080FB00BF3037BD4680BDB4
:104E8000002401400010024000080140000C0140D5
:104E90000028014080B584B000AF78607B681B6853
:104EA0000B4A934210D101F03DFD0A4BDB69094AE0
:104EB00043F00063D361074BDB6903F00063FB60E1
:104EC000FB68054B01221A6000BF1037BD4680BD4C
:104ED00000280040001002403C04424280B588B0E7
:104EE00000AF786007F1100300221A605A609A60E0
:104EF000DA607B681B68294A93424AD1284BDB69F8
:104F0000274A43F48043D361254BDB6903F4804394
:104F1000FB60FB68224B9B69214A43F008039361C5
:104F20001F4B9B6903F00803BB60BB684FF4204331
:104F30003B6102237B610323FB6107F110031946E8
:104F4000184801F019FB184B184A1A60164B10222A
:104F50005A60154B00229A60134B8022DA60124B84
:104F600000221A61104B00225A610F4B00229A61F5
:104F70000D4B0022DA610C4801F060F80346002B6B
:104F800001D0FFF7CFFA7B68074A9A64064A7B682C
:104F9000536200BF2037BD4680BD00BF00380040CF
:104FA00000100240000C01409C0300205800024009
:104FB00080B586B000AF78607B681B681F4A93425B
:104FC00014D11F4B9B691E4A43F4006393611C4B31
:104FD0009B6903F400637B617B6900220021192037
:104FE00000F0F5FF192001F00EF822E07B681B6845
:104FF000B3F1804F0CD1124BDB69114A43F001032E
:10500000D3610F4BDB6903F001033B613B6910E0A7
:105010007B681B680B4A93420BD1094BDB69084A3A
:1050200043F00203D361064BDB6903F00203FB602C
:10503000FB6800BF1837BD4680BD00BF002C014093
:10504000001002400004004080B588B000AF7860D6
:1050500007F1100300221A605A609A60DA607B68D8
:105060001B68194A93422BD1184BDB69174A43F04E
:105070000403D361154BDB6903F00403FB60FB6899
:10508000124B9B69114A43F0080393610F4B9B69D4
:1050900003F00803BB60BB68C0233B6100237B6156
:1050A0000023BB6107F110031946094801F064FAB7
:1050B000002200211E2000F08AFF1E2000F0A3FF26
:1050C00000BF2037BD4680BD0008004000100240F0
:1050D000000C014080B588B000AF786007F1100384
:1050E00000221A605A609A60DA607B681B68B3F12C
:1050F000804F17D10D4B9B690C4A43F00403936119
:105100000A4B9B6903F00403FB60FB6802233B61CD
:1051100002237B610223FB6107F110031946044857
:1051200001F02AFA00BF2037BD4680BD00100240C2
:105130000008014080B588B000AF786007F1100327
:1051400000221A605A609A60DA607B681B68204A05
:10515000934239D11F4B9B691E4A43F480439361AC
:105160001C4B9B6903F48043FB60FB68194B9B69F4
:10517000184A43F004039361164B9B6903F0040340
:10518000BB60BB684FF400733B6102237B61032368
:10519000FB6107F1100319460F4801F0EDF94FF4D8
:1051A00080633B6100237B610023BB6107F1100337
:1051B0001946094801F0E0F900220021252000F0FD
:1051C00006FF252000F01FFF00BF2037BD4680BD31
:1051D00000380140001002400008014080B400AFD8
:1051E000FEE780B400AFFEE780B400AFFEE780B416
:1051F00000AFFEE780B400AFFEE780B400AF00BFB1
:10520000BD4680BC704780B400AF00BFBD4680BCC7
:10521000704780B400AF00BFBD4680BC704780B50A
:1052200000AF00F065F900BF80BD000080B500AFA1
:10523000024801F06DF800BF80BD00BF9C03002054
:1052400080B500AF202001F04BFB00BF80BD000007
:1052500080B500AF024803F0C5FB00BF80BD00BFB2
:10526000E003002080B500AF024803F0BBFB00BFA5
:1052700080BD00BFB804002080B500AF024804F034
:105280004BFB00BF80BD00BF0005002080B400AF15
:1052900001231846BD4680BC704780B582B000AF80
:1052A0007860396004F05EFF034616221A604FF002
:1052B000FF3318460837BD4680BD80B582B000AFC9
:1052C00078604FF0FF317868FFF7E7FFFEE780B5C1
:1052D00086B000AFF860B9607A6000237B610AE0B5
:1052E000AFF300800146BB685A1CBA60CAB21A709C
:1052F0007B6901337B617A697B689A42F0DB7B686A
:1053000018461837BD4680BD80B586B000AFF8603E
:10531000B9607A6000237B6109E0BB685A1CBA60FF
:105320001B781846AFF300807B6901337B617A6993
:105330007B689A42F1DB7B6818461837BD4680BD12
:1053400080B483B000AF78604FF0FF3318460C375D
:10535000BD4680BC704780B483B000AF78603960D0
:105360003B684FF400525A60002318460C37BD4684
:1053700080BC704780B483B000AF786001231846CA
:105380000C37BD4680BC704780B485B000AFF86074
:10539000B9607A60002318461437BD4680BC704758
:1053A00080B586B000AF7860144A154BD31A7B6184
:1053B0007B693B61134B1B68002B02D1114B124AD6
:1053C0001A60104B1A687B6813443A699A4207D2F4
:1053D00004F0C8FE03460C221A604FF0FF3309E0C8
:1053E000084B1B68FB60074B1A687B681344054A2F
:1053F0001360FB6818461837BD4680BD005000207A
:105400000004000094070020B007002080B400AF23
:1054100000BFBD4680BC70470C480D490D4A0023B3
:1054200002E0D458C4500433C4188C42F9D30A4A59
:105430000A4C002301E013600432A242FBD3FFF7C1
:10544000E5FF04F095FEFEF7CBF970470000002061
:105450001802002094F1000818020020AC07002078
:10546000FEE7000080B500AF084B1B68074A43F019
:1054700010031360032000F09FFD0F2000F008F8D8
:10548000FFF758FC0023184680BD00BF00200240F3
:1054900080B582B000AF7860124B1A68124B1B784F
:1054A00019464FF47A73B3FBF1F3B2FBF3F31846EA
:1054B00000F0B7FD0346002B01D001230EE07B680E
:1054C0000F2B0AD8002279684FF0FF3000F07FFDE3
:1054D000064A7B681360002300E001231846083762
:1054E000BD4680BD3C00002044000020400000205C
:1054F00080B400AF054B1B781A46054B1B6813445C
:10550000034A136000BFBD4680BC704744000020C2
:105510009807002080B400AF024B1B681846BD46B8
:1055200080BC70479807002080B584B000AF7860D9
:10553000FFF7F0FFB8607B68FB60FB68B3F1FF3FEB
:1055400005D00A4B1B781A46FB681344FB6000BF6A
:10555000FFF7E0FF0246BB68D31AFA689A42F7D811
:1055600000BF00BF1037BD4680BD00BF4400002013
:1055700080B586B000AF78600023FB7500233B61E7
:105580000023BB600023FB607B68002B01D101235B
:10559000BEE07B689B68002B7B689B6A002B09D16F
:1055A0007B680022DA627B68002283F82420786816
:1055B000FFF7F2FB786800F0F1FB0346FB757B68B0
:1055C0009B6A03F01003002B40F09980FB7D002BB9
:1055D00040F095807B689B6A23F4885323F0020394
:1055E00043F002027B689A627B685A687B68DB69D9
:1055F0001A437B681B7B5B001343BA681343BB6091
:105600007B689B68B3F5807F03D07B689B68012B28
:1056100002D14FF4807300E000233A6913433B61E9
:105620007B681B7D012B19D17B681B7B002B09D16B
:105630007B689B69013B5A033B69134343F4006356
:105640003B610BE07B689B6A43F020027B689A62B7
:105650007B68DB6A43F001027B68DA627B681B6867
:105660005B6823F469417B681B683A690A435A60A6
:105670007B681B689A68284B13407A681268B9687F
:105680000B4393607B689B68B3F5807F03D07B6896
:105690009B68012B04D17B681B69013B1B05FB60E8
:1056A0007B681B68DB6A23F470017B681B68FA68FF
:1056B0000A43DA627B681B689A68184B1340BA6821
:1056C0009A420BD17B680022DA627B689B6A23F0E6
:1056D000030343F001027B689A6218E07B689B6ACF
:1056E00023F0120343F010027B689A627B68DB6A46
:1056F00043F001027B68DA620123FB7507E07B68F7
:105700009B6A43F010027B689A620123FB75FB7D64
:1057100018461837BD4680BDFDF7E1FFFE0E1FFF9E
:1057200080B584B000AF78600023FB737B6893F88A
:105730002430012B01D1022398E07B68012283F8F9
:105740002420786800F0D0FA0346FB73FB7B002B23
:1057500040F087807B689B6A23F4407323F0010349
:1057600043F480727B689A627B681B68414A93426B
:1057700005D1414B5B6803F47023002B15D17B6886
:105780009B6A23F480127B689A627B681B685B6863
:1057900003F48063002B26D07B689B6A23F440537C
:1057A00043F480527B689A621DE07B689B6A43F4F5
:1057B00080127B689A627B681B682F4A934204D0F0
:1057C0007B681B682B4A93420DD12B4B5B6803F41B
:1057D0008063002B07D07B689B6A23F4405343F41B
:1057E00080527B689A627B689B6A03F48053002B2B
:1057F00006D07B68DB6A23F006027B68DA6202E08F
:105800007B680022DA627B68002283F824207B68B0
:105810001B686FF002021A607B681B689B6803F4C8
:105820006023B3F5602F13D17B681B68114A934244
:1058300005D1114B5B6803F47023002B08D17B6802
:105840001B689A687B681B6842F4A0029A600CE0AF
:105850007B681B689A687B681B6842F480129A60B8
:1058600003E07B68002283F82420FB7B1846103776
:10587000BD4680BD002801400024014080B584B0B1
:1058800000AF78600023FB737B6893F82430012B12
:1058900001D102231AE07B68012283F82420786872
:1058A00000F07CFA0346FB73FB7B002B09D17B687D
:1058B0009B6A23F4885323F0010343F001027B68C1
:1058C0009A627B68002283F82420FB7B18461037FD
:1058D000BD4680BD90B587B000AF786039600023C9
:1058E0007B610023FB6000233B61FFF713FE7861BF
:1058F0007B681B689B6803F48073002B0BD07B686C
:105900009B6A43F020027B689A627B68002283F8DE
:1059100024200123D3E07B681B685B6803F4807359
:10592000002B31D17B681B68DB6A03F47003002B0A
:105930002AD121E03B68B3F1FF3F1DD03B68002B2B
:1059400007D0FFF7E7FD02467B69D31A3A689A420F
:1059500012D27B681B681B6803F00203002B0BD17B
:105960007B689B6A43F004027B689A627B68002232
:1059700083F824200323A2E07B681B681B6803F0E4
:105980000203002BD6D070E04F4B1C68022001F0C0
:10599000A7FC0346B4FBF3F27B681B6819694B4B09
:1059A0000B40002B18D17B681B68D968484B0B4013
:1059B000002B11D17B681B681969464B0B40002BEB
:1059C00008D17B681B68D968434B0B40002B01D181
:1059D000142320E029231EE07B681B6819693D4BD6
:1059E0000B40002B06D17B681B68D9683A4B0B40F3
:1059F000002B0DD07B681B681969384B0B40002BBE
:105A000008D17B681B68D968344B0B40002B01D14F
:105A1000542300E0FC2302FB03F33B6121E03B68DD
:105A2000B3F1FF3F1AD03B68002B07D0FFF772FDA0
:105A300002467B69D31A3A689A420FD2FB683A69E8
:105A40009A420BD97B689B6A43F004027B689A6296
:105A50007B68002283F82420032330E0FB680133B5
:105A6000FB60FB683A699A42D9D87B681B686FF083
:105A700012021A607B689B6A43F400727B689A6228
:105A80007B681B689B6803F46023B3F5602F15D116
:105A90007B681B7B002B11D17B689B6A23F480728F
:105AA0007B689A627B689B6A03F48053002B05D164
:105AB0007B689B6A43F001027B689A620023184668
:105AC0001C37BD4690BD00BF3C00002024499224F5
:105AD00024499200922449129224490049922400B8
